:0A000000020042C0D01187D0D032B8
:01000B0032C2
:0100130032BA
:01001B0032B2
:0100230032AA
:1000300075880075890075D00075A80022D2AFD2EE
:10004000A8221130712851EB114E113D117E7940DB
:1000500077007941770079427700794377007944D6
:1000600077007945770079467700794777007948B6
:1000700077037949770022114E718711B022718779
:1000800011B0119780FC22C0E0C2A851DC794674FF
:1000900001F751D7D0E02211D59017A17BB87C4150
:1000A00011D69017B17BBB7C4211D6310931C022E9
:1000B0007BB811B97BBB11B92278E27178EBF8718A
:1000C00078780071789017C17A3D7B00EB93F871D6
:1000D000820BDAF8222278E27173EBF871737813ED
:1000E0007173ECF9E77A3DFBBB0F027B00EB93F8F1
:1000F000717D0BDAF3ECF9EBF722B800067E0022F3
:100100007E0122BD01FA7E002278E27173EB78BA9B
:100110007173781371739016757944E7B4F00274B3
:1001200000FCE5822CF58230D70205837946E7FD95
:100130000201365157227A3D7B00EB93F8BB000C4D
:1001400011FABE00EE51E6E851D748F8BB010C1198
:10015000FABE00DF51E6E951D748F8BB020C11FAAC
:10016000BE00D051E6EA51D748F8BB030C11FABEE5
:1001700000C151E6EB51D748F8BB040C11FABE00A0
:10018000B251E6EC51D748F8BB050C11FABE00A3FA
:1001900051E6ED51D748F8BB060C11FABE00945158
:1001A000E6EE51D748F8BB070C11FABE008551E6C0
:1001B000EF51D748F8717D0BDA8079440CECF722C7
:1001C00078E2717378B97173781371737945E7FDCB
:1001D0000D7946E7B400057D0002020CBD18087DCC
:1001E0000079467700D2A8ED75F008A4FC901500C0
:1001F000E5822CF5827A087B00EB93F8717D0BDAAF
:10020000F8901400E5822CF58202022E7948E7145A
:10021000F7B4000C7403F77947E76401F70202238F
:100220007947E775F008A49013F02582F58251E62E
:10023000740093F8740193F9740293FA740393FBB6
:10024000740493FC740593FD740693FE740793FF86
:1002500051D77945EDF722C2A8718778E27173789A
:10026000BA7173781371737B1E7800717DDBFA7C31
:10027000007B1F9013A0EC93F8717D0CDBF578BA2E
:100280007178780071787B1D9013A0EC93F87182DF
:100290000CDBF5740A519C1177D2A822FF7E047DF5
:1002A000FA7C92000000000000DCF8DDF4DEF0DFF4
:1002B000EC22FF7E92000000000000DEF8DFF42256
:1002C000FF7E01DEFEDFFA22FF7E02000000DEFB81
:1002D000DFF72275900022C2D3C2D422D2D3C2D477
:1002E00022C2D3D2D422D2D3D2D422D2B3D2B7D242
:1002F000B62288838982F022F02288A08980C2B346
:10030000F590C2B600D2B6D2B32251F222888389C8
:1003100082E022E02288A08980C2B3C2B700E590C3
:10032000D2B7D2B322710D2275B001740C51C8D26C
:10033000B4740251B278E27173717878EE717371AE
:100340007878A47173717878A97173717878C071B5
:1003500073717878A17173717878AF717371785116
:10036000D32289B08890742851C0C2B074A051C003
:10037000D2B022791D7162227915716222793D71A4
:10038000622279357162227C0474049CFAEA44B8D2
:10039000F871737813717378007B3D717DDBFCEA33
:1003A00044B8F871787800717878007B3D7182DB11
:0603B000FCDCD651D32253
:1013A0007E7E02027E7E007E7E42427E7E000202C1
:1013B0007E7E0202007E7E12121E1E00707C0A0AD1
:1013C0007C70000E0E087E7E007E7E4A42007E7E8D
:0C13D00008087E7E007E7E42427E7E0089
:1013F00000444A3E0F1E24C000203EEF3E0402007F
:101400000004C23C1F3CC2040042221E0F1E2242A6
:1014100000040202010102040000000000000000BC
:1014200000000000000000000000000000000000BC
:1014300000000000000000000000000000000000AC
:10144000000000000000000000000000000000009C
:10145000000000000000000000000000000000008C
:10146000000000000000000000000000000000007C
:10147000000000000000000000000000000000006C
:10148000000000000000000000000000000000005C
:10149000000000000000000000000000000000004C
:1014A000000000000000000000040202010102042C
:1014B0000042221E0F1E22420004C23C1F3CC204F6
:10150000000000000000000000000000800000005B
:10151000002020E0F8E020203022241C1F3422305C
:101520003022241C1F3422303022241C1F3422304D
:101530003022241C1F3422303022241C1F3422303D
:101540003022241C1F3422303022241C1F3422302D
:101550003022241C1F3422303022241C1F3422301D
:101560003022241C1F3422303022241C1F3422300D
:101570003022241C1F3422303022241C1F342230FD
:101580003022241C1F3422303022241C1F342230ED
:101590003022241C1F3422303022241C1F342230DD
:1015A0003022241C1F342230002020E0F8E02020CC
:1015B00000000000800000000000000000000000AB
:101675000000000000000000000000000000000065
:101685000000000000000000000000000000000055
:101695000000000000000000000000000000000045
:1016A5000000F8F8FCFFFFFCF8F80000000000005F
:1016B5000000000000000000000000000000000025
:1016C50000000000000000000000E0F0B8B8B8B865
:1016D500F0E0000000000000000000000000000035
:1016E50000000000000000000000000000000000F5
:1016F500000000000000000000000000000000E005
:10170500E0E0E0E0E0E0E0000000000000000000B4
:1017150000000000000000000000E0F0B8BCB8B810
:10172500F0E00000000000000000000000000000E4
:10173500000000000000000000000000F8E0F8E0F4
:10174500F8E0F8E0000000000000000000000000E4
:101755000000000000000000988888FCFC8888983C
:101765000000000000000000000000000000000074
:101775000000000000000000000000000000000064
:101785000000000000000000000000000000000054
:101795000000F8F8FCFFFFFCF8F80000081C3622F2
:1017A5002020380C040E1A1210180808CFC9F9C9E0
:1017B500CFC9F9C9CFC9F9C9CFC9F9C9FFFF55AA19
:1017C50055AA55AA55AA55AA55AA55AA55AA55AA1C
:1017D50055AA55AA55AA55AA55AA55AA55AA55AA0C
:1017E50055AA55AA55AA55AA55AA55AA55AA55AAFC
:0A17F50055AA55AA55AA55FFFF405A
:00000001FF
