:0A000000020042C0D01183D0D032BC
:01000B0032C2
:0100130032BA
:01001B0032B2
:0100230032AA
:1000300075880075890075D00075A80022D2AFD2EE
:10004000A8221130719E71615198794077007941F1
:1000500077007942770079437700794477007945D2
:1000600077007946770079477700794877037949AF
:10007000770022114A911811AC22911811AC1193FA
:1000800080FC22C0E0C2A8715279467401F7714D1C
:10009000D0E02211D19017A17BB87C4111D29017EA
:1000A000B17BBB7C4211D2310531BC227BB811B58A
:1000B0007BBB11B52278E271EEEBF871EE7800713E
:1000C000EE9017C17A3D7B00EB93F871F80BDAF8EC
:1000D000222278E271E9EBF871E9781371E9ECF921
:1000E000E77A3DFBBB0F027B00EB93F871F30BDA71
:1000F000F3ECF9EBF722B800067E00227E0122BD68
:1001000001FA7E002278E271E9EB78BA71E978139E
:1001100071E99016757944E7B4F0027400FCE58249
:100120002CF58230D70205837946E7FD0201325172
:1001300053227A3D7B00EB93F8BB000C11F6BE0016
:10014000EE715CE8714D48F8BB010C11F6BE00DFA2
:10015000715CE9714D48F8BB020C11F6BE00D0711C
:100160005CEA714D48F8BB030C11F6BE00C1715C2E
:10017000EB714D48F8BB040C11F6BE00B2715CEC9B
:10018000714D48F8BB050C11F6BE00A3715CED7112
:100190004D48F8BB060C11F6BE0094715CEE714D33
:1001A00048F8BB070C11F6BE0085715CEF714D4835
:1001B000F871F30BDA8079440CECF72278E271E9FC
:1001C00078B971E9781371E97945E7FD0D7946E76A
:1001D000B400057D00020208BD18087D007946774D
:1001E00000D2A8ED75F008A4FC901500E5822CF56E
:1001F000827A087B00EB93F871F30BDAF890140025
:10020000E5822CF58202022A7948E714F7B4000C43
:100210007403F77947E76401F702021F7947E7752E
:10022000F008A49013F02582F582715C740093F8B5
:10023000740193F9740293FA740393FB740493FCAE
:10024000740593FD740693FE740793FF714D794511
:10025000EDF722C2A8911878E271E978BA71E978CD
:100260001371E97B1E780071F3DBFA7C007B1F9031
:1002700013A0EC93F871F30CDBF578BA71EE78000B
:1002800071EE7B1D9013A0EC93F871F80CDBF57404
:100290000A71121173D2A822519B22914751A49145
:1002A000C980F82278017901915C78027907915C24
:1002B000783C791F915C22900100C083C08290132A
:1002C000A0C083C0827C20D082D083740093A3A876
:1002D00083A982D082D083F0A3AA83AB82EAC0E054
:1002E000EBC0E0E8C0E0E9C0E0DCDCD082D083D045
:1002F00082D08378E271E978B971E9781371E97C89
:10030000007B187583018C82E0F871F30CDBF480BC
:10031000FE22FF7E047DFA7C92000000000000DCDB
:10032000F8DDF4DEF0DFEC22FF7E9200000000003A
:1003300000DEF8DFF422FF7E01DEFEDFFA22FF7E20
:1003400002000000DEFBDFF72275900022C2D3C25C
:10035000D422D2D3C2D422C2D3D2D422D2D3D2D4A2
:1003600022D28F22F02288838982F022F02288A074
:100370008980C2B3F590C2B600D2B6D2B3227164FE
:1003800022E02288838982E022E02288A08980C23C
:10039000B3C2B700E590D2B7D2B32271812275B053
:1003A00001740C713ED2B47402712878E271E97163
:1003B000EE78EE71E971EE78A471E971EE78A971C9
:1003C000E971EE78C071E971EE78A171E971EE78AA
:1003D000AF71E971EE71492289B088907428713645
:1003E000C2B074A07136D2B022791D71D8227915AD
:1003F00071D822793D71D822793571D82289B0F52A
:100400009074287136C2B074A07136D2B022793D92
:1004100071FD22793571FD227C0474049CFAEA4452
:10042000B8F871E9781371E978007B3D71F3DBFC72
:10043000EA44B8F871EE780071EE78007B3D71F80F
:10044000DBFCDCD67149229001007C047D7A7400CB
:10045000F0A3DDFADCF6229147919B229001007413
:100460003DC2D79850039001F4E975F0088475F007
:100470003DA4C2D7AB823BF58250020583E8C2D7C8
:10048000AB823BF58250020583E975F00884E5F004
:10049000FB740123DBFDFBE04BF0229001007C04A8
:1004A00074049CFAEA44B8F871E9781371E97D3D67
:1004B000E0910EA3DDFAEA44B8F871EE780071EE2F
:1004C0007D3DE0A3DDFCDCD8229001007C0478E2D5
:1004D00071E974049CFAEA44B8F871E9781371E997
:0B04E0007D3DE0910EA3DDFADCE4227C
:1013A0007E7E02027E7E007E7E42427E7E000202C1
:1013B0007E7E0202007E7E12121E1E00707C0A0AD1
:1013C0007C70000E0E087E7E007E7E4A42007E7E8D
:0C13D00008087E7E007E7E42427E7E0089
:1013F00000444A3E0F1E24C000203EEF3E0402007F
:101400000004C23C1F3CC2040042221E0F1E2242A6
:1014100000040202010102040000000000000000BC
:1014200000000000000000000000000000000000BC
:1014300000000000000000000000000000000000AC
:10144000000000000000000000000000000000009C
:10145000000000000000000000000000000000008C
:10146000000000000000000000000000000000007C
:10147000000000000000000000000000000000006C
:10148000000000000000000000000000000000005C
:10149000000000000000000000000000000000004C
:1014A000000000000000000000040202010102042C
:1014B0000042221E0F1E22420004C23C1F3CC204F6
:10150000000000000000000000000000800000005B
:10151000002020E0F8E020203022241C1F3422305C
:101520003022241C1F3422303022241C1F3422304D
:101530003022241C1F3422303022241C1F3422303D
:101540003022241C1F3422303022241C1F3422302D
:101550003022241C1F3422303022241C1F3422301D
:101560003022241C1F3422303022241C1F3422300D
:101570003022241C1F3422303022241C1F342230FD
:101580003022241C1F3422303022241C1F342230ED
:101590003022241C1F3422303022241C1F342230DD
:1015A0003022241C1F342230002020E0F8E02020CC
:1015B00000000000800000000000000000000000AB
:101675000000000000000000000000000000000065
:101685000000000000000000000000000000000055
:101695000000000000000000000000000000000045
:1016A5000000F8F8FCFFFFFCF8F80000000000005F
:1016B5000000000000000000000000000000000025
:1016C50000000000000000000000E0F0B8B8B8B865
:1016D500F0E0000000000000000000000000000035
:1016E50000000000000000000000000000000000F5
:1016F500000000000000000000000000000000E005
:10170500E0E0E0E0E0E0E0000000000000000000B4
:1017150000000000000000000000E0F0B8BCB8B810
:10172500F0E00000000000000000000000000000E4
:10173500000000000000000000000000F8E0F8E0F4
:10174500F8E0F8E0000000000000000000000000E4
:101755000000000000000000988888FCFC8888983C
:101765000000000000000000000000000000000074
:101775000000000000000000000000000000000064
:101785000000000000000000000000000000000054
:101795000000F8F8FCFFFFFCF8F80000081C3622F2
:1017A5002020380C040E1A1210180808CFC9F9C9E0
:1017B500CFC9F9C9CFC9F9C9CFC9F9C9FFFF55AA19
:1017C50055AA55AA55AA55AA55AA55AA55AA55AA1C
:1017D50055AA55AA55AA55AA55AA55AA55AA55AA0C
:1017E50055AA55AA55AA55AA55AA55AA55AA55AAFC
:0A17F50055AA55AA55AA55FFFF405A
:00000001FF
