:0A000000020042C0D01183D0D032BC
:01000B0032C2
:0100130032BA
:01001B0032B2
:0100230032AA
:1000300075880075890075D00075A80022D2AFD2EE
:10004000A822113091429105519879407700794169
:1000500077007942770079437700794477007945D2
:1000600077007946770079477700794877037949AF
:10007000770022114A91BC11AC2291BC11AC1193B2
:1000800080FC22C0E0C2A871DB79467401F771D60A
:10009000D0E02211D19017A17BB87C4111D29017EA
:1000A000B17BBB7C4211D2310531BC227BB811B58A
:1000B0007BBB11B52278E29192EBF8919278009196
:1000C000929017C17A3D7B00EB93F8919C0BDAF884
:1000D000222278E2918DEBF8918D7813918DECF9D5
:1000E000E77A3DFBBB0F027B00EB93F891970BDAAD
:1000F000F3ECF9EBF722B800067E00227E0122BD68
:1001000001FA7E002278E2918DEB78BA918D781316
:10011000918D9016757944E7B4F0027400FCE58285
:100120002CF58230D70205837946E7FD0201325172
:1001300053227A3D7B00EB93F8BB000C11F6BE0016
:10014000EE71E5E871D648F8BB010C11F6BE00DF90
:1001500071E5E971D648F8BB020C11F6BE00D0710A
:10016000E5EA71D648F8BB030C11F6BE00C171E593
:10017000EB71D648F8BB040C11F6BE00B271E5EC89
:1001800071D648F8BB050C11F6BE00A371E5ED7100
:10019000D648F8BB060C11F6BE009471E5EE71D698
:1001A00048F8BB070C11F6BE008571E5EF71D64823
:1001B000F891970BDA8079440CECF72278E2918D74
:1001C00078B9918D7813918D7945E7FD0D7946E7E2
:1001D000B400057D00020208BD18087D007946774D
:1001E00000D2A8ED75F008A4FC901500E5822CF56E
:1001F000827A087B00EB93F891970BDAF890140061
:10020000E5822CF58202022A7948E714F7B4000C43
:100210007403F77947E76401F702021F7947E7752E
:10022000F008A49013F02582F58271E5740093F82C
:10023000740193F9740293FA740393FB740493FCAE
:10024000740593FD740693FE740793FF71D6794588
:10025000EDF722C2A891BC78E2918D78BA918D78A1
:1002600013918D7B1E78009197DBFA7C007B1F90A9
:1002700013A0EC93F891970CDBF578BA9192780083
:1002800091927B1D9013A0EC93F8919C0CDBF5747C
:100290000A719B1173D2A822519B227590FF7402A0
:1002A000719B7590007402719B80F0229002007423
:1002B000AAF0900200E0F5907402719B75900074B2
:1002C00002719B80ED2251D191EB51E4B10080F895
:1002D000229000FE7400F09000707400F0900071A5
:1002E0007400F022900070E0F9900071E0FA71EA79
:1002F000BADC07B9050479007A00E9900070F0EAE9
:10030000900071F089838A827E01902000B18F7EF7
:100310000E902008B18F7E18902010B18F2290008F
:10032000FEE004B412027400F0FD7E01902000B1E2
:100330008F7E0E902008B18F7E18902010B18F22F2
:10034000900100C083C0829013A0C083C0827C2033
:10035000D082D083740093A3A883A982D082D08353
:10036000F0A3AA83AB82EAC0E0EBC0E0E8C0E0E91A
:10037000C0E0DCDCD082D083D082D08378E2918D63
:1003800078B9918D7813918D7C007B187583018CE1
:1003900082E0F891970CDBF480FE22FF7E047DFA68
:1003A0007C92000000000000DCF8DDF4DEF0DFEC01
:1003B00022FF7E92000000000000DEF8DFF422FF42
:1003C0007E01DEFEDFFA22FF7E02000000DEFBDFA0
:1003D000F72275900022C2D3C2D422D2D3C2D42233
:1003E000C2D3D2D422D2D3D2D422EA3401FAE9340D
:1003F00000F922EA3CFAE93BF922E5823CF582E584
:10040000833BF58322D28F22F02288838982F022D7
:10041000F02288A08980C2B3F590C2B600D2B6D2CD
:10042000B322910822E02288838982E022E0228898
:10043000A08980C2B3C2B700E590D2B7D2B32291EF
:10044000252275B001740C71C7D2B4740271B178F1
:10045000E2918D919278EE918D919278A4918D9107
:100460009278A9918D919278C0918D919278A19175
:100470008D919278AF918D919271D22289B08890AE
:10048000742871BFC2B074A071BFD2B022791D911F
:100490007C227915917C22793D917C227935917C61
:1004A0002289B0F590742871BFC2B074A071BFD218
:1004B000B022793D91A122793591A1227C04740466
:1004C0009CFAEA44B8F8918D7813918D78007B3DC1
:1004D0009197DBFCEA44B8F8919278009192780009
:1004E0007B3D919CDBFCDCD671D2229001007C0428
:1004F0007D7A7400F0A3DDFADCF62291EBB10022E4
:100500009001007C0478E2918D74049CFAEA44B86E
:10051000F8918D7813918D7D3DE091B2A3DDFADCE9
:10052000E4229001007C0474049CFAEA44B8F89137
:100530008D7813918D7D3DE091B2A3DDFAEA44B848
:10054000F89192780091927D3DE0A3DDFCDCD82209
:10055000900100743DC2D79850039001F4E975F002
:10056000088475F03DA4C2D7AB823BF582500205EA
:1005700083E8C2D7AB823BF58250020583E975F070
:100580000884E5F0FB740123DBFDFBE04BF022C0A7
:1005900083C0829000607400F07A08900060E02DC3
:1005A000F8E004F0EEF9D082D083740093A3C08306
:1005B000C082C0E07C08D0E0C2D713C0E05002B1D6
:0D05C0005009DCF2D0E0DAD3D082D08322E3
:1013A0007E7E02027E7E007E7E42427E7E000202C1
:1013B0007E7E0202007E7E12121E1E00707C0A0AD1
:1013C0007C70000E0E087E7E007E7E4A42007E7E8D
:0C13D00008087E7E007E7E42427E7E0089
:1013F00000444A3E0F1E24C000203EEF3E0402007F
:101400000004C23C1F3CC2040042221E0F1E2242A6
:1014100000040202010102040000000000000000BC
:1014200000000000000000000000000000000000BC
:1014300000000000000000000000000000000000AC
:10144000000000000000000000000000000000009C
:10145000000000000000000000000000000000008C
:10146000000000000000000000000000000000007C
:10147000000000000000000000000000000000006C
:10148000000000000000000000000000000000005C
:10149000000000000000000000000000000000004C
:1014A000000000000000000000040202010102042C
:1014B0000042221E0F1E22420004C23C1F3CC204F6
:10150000000000000000000000000000800000005B
:10151000002020E0F8E020203022241C1F3422305C
:101520003022241C1F3422303022241C1F3422304D
:101530003022241C1F3422303022241C1F3422303D
:101540003022241C1F3422303022241C1F3422302D
:101550003022241C1F3422303022241C1F3422301D
:101560003022241C1F3422303022241C1F3422300D
:101570003022241C1F3422303022241C1F342230FD
:101580003022241C1F3422303022241C1F342230ED
:101590003022241C1F3422303022241C1F342230DD
:1015A0003022241C1F342230002020E0F8E02020CC
:1015B00000000000800000000000000000000000AB
:101675000000000000000000000000000000000065
:101685000000000000000000000000000000000055
:101695000000000000000000000000000000000045
:1016A5000000F8F8FCFFFFFCF8F80000000000005F
:1016B5000000000000000000000000000000000025
:1016C50000000000000000000000E0F0B8B8B8B865
:1016D500F0E0000000000000000000000000000035
:1016E50000000000000000000000000000000000F5
:1016F500000000000000000000000000000000E005
:10170500E0E0E0E0E0E0E0000000000000000000B4
:1017150000000000000000000000E0F0B8BCB8B810
:10172500F0E00000000000000000000000000000E4
:10173500000000000000000000000000F8E0F8E0F4
:10174500F8E0F8E0000000000000000000000000E4
:101755000000000000000000988888FCFC8888983C
:101765000000000000000000000000000000000074
:101775000000000000000000000000000000000064
:101785000000000000000000000000000000000054
:101795000000F8F8FCFFFFFCF8F80000081C3622F2
:1017A5002020380C040E1A1210180808CFC9F9C9E0
:1017B500CFC9F9C9CFC9F9C9CFC9F9C9FFFF55AA19
:1017C50055AA55AA55AA55AA55AA55AA55AA55AA1C
:1017D50055AA55AA55AA55AA55AA55AA55AA55AA0C
:1017E50055AA55AA55AA55AA55AA55AA55AA55AAFC
:0917F50055AA55AA55AA55FFFF9B
:10200000AA55AA55AA55AA5538686E2A2A6A6E3862
:092010007E3C18181818183C4019
:00000001FF
