:0A000000020042C0D01183D0D032BC
:01000B0032C2
:0100130032BA
:01001B0032B2
:0100230032AA
:1000300075880075890075D00075A80022D2AFD2EE
:10004000A822113071BD71805198794077007941B3
:1000500077007942770079437700794477007945D2
:1000600077007946770079477700794877037949AF
:10007000770022114A913711AC22913711AC1193BC
:1000800080FC22C0E0C2A8716A79467401F77165EC
:10009000D0E02211D19017A17BB87C4111D29017EA
:1000A000B17BBB7C4211D2310531BC227BB811B58A
:1000B0007BBB11B52278E2910DEBF8910D780091A0
:1000C0000D9017C17A3D7B00EB93F891170BDAF88E
:1000D000222278E29108EBF8910878139108ECF964
:1000E000E77A3DFBBB0F027B00EB93F891120BDA32
:1000F000F3ECF9EBF722B800067E00227E0122BD68
:1001000001FA7E002278E29108EB78BA9108781320
:1001100091089016757944E7B4F0027400FCE5820A
:100120002CF58230D70205837946E7FD0201325172
:1001300053227A3D7B00EB93F8BB000C11F6BE0016
:10014000EE7174E8716548F8BB010C11F6BE00DF72
:100150007174E9716548F8BB020C11F6BE00D071EC
:1001600074EA716548F8BB030C11F6BE00C17174E6
:10017000EB716548F8BB040C11F6BE00B27174EC6B
:10018000716548F8BB050C11F6BE00A37174ED71E2
:100190006548F8BB060C11F6BE00947174EE7165EB
:1001A00048F8BB070C11F6BE00857174EF71654805
:1001B000F891120BDA8079440CECF72278E291087E
:1001C00078B99108781391087945E7FD0D7946E7EC
:1001D000B400057D00020208BD18087D007946774D
:1001E00000D2A8ED75F008A4FC901500E5822CF56E
:1001F000827A087B00EB93F891120BDAF8901400E6
:10020000E5822CF58202022A7948E714F7B4000C43
:100210007403F77947E76401F702021F7947E7752E
:10022000F008A49013F02582F5827174740093F89D
:10023000740193F9740293FA740393FB740493FCAE
:10024000740593FD740693FE740793FF71657945F9
:10025000EDF722C2A8913778E2910878BA91087830
:100260001391087B1E78009112DBFA7C007B1F90B3
:1002700013A0EC93F891120CDBF578BA910D78008D
:10028000910D7B1D9013A0EC93F891170CDBF57486
:100290000A712A1173D2A822519B2251A69166514C
:1002A000AD917B80F8229000FE7400F0229000FE59
:1002B000E004B412027400F0FD7E01902000B10A47
:1002C0007E0E902008B10A7E18902010B10A22906C
:1002D0000100C083C0829013A0C083C0827C20D064
:1002E00082D083740093A3A883A982D082D083F0A4
:1002F000A3AA83AB82EAC0E0EBC0E0E8C0E0E9C0BB
:10030000E0DCDCD082D083D082D08378E2910878A0
:10031000B99108781391087C007B187583018C8251
:10032000E0F891120CDBF480FE22FF7E047DFA7C63
:1003300092000000000000DCF8DDF4DEF0DFEC22CB
:10034000FF7E92000000000000DEF8DFF422FF7E56
:1003500001DEFEDFFA22FF7E02000000DEFBDFF797
:100360002275900022C2D3C2D422D2D3C2D422C2D8
:10037000D3D2D422D2D3D2D422EA3CFAE93BF92216
:10038000D28F22F02288838982F022F02288A089ED
:1003900080C2B3F590C2B600D2B6D2B32271832226
:1003A000E02288838982E022E02288A08980C2B38B
:1003B000C2B700E590D2B7D2B32271A02275B001C6
:1003C000740C7156D2B47402714078E29108910DA8
:1003D00078EE9108910D78A49108910D78A9910873
:1003E000910D78C09108910D78A19108910D78AF89
:1003F0009108910D71612289B088907428714EC264
:10040000B074A0714ED2B022791D71F722791571A6
:10041000F722793D71F722793571F72289B0F5908D
:100420007428714EC2B074A0714ED2B022793D9141
:100430001C227935911C227C0474049CFAEA44B88D
:10044000F891087813910878007B3D9112DBFCEA63
:1004500044B8F8910D7800910D78007B3D9117DB41
:10046000FCDCD67161229001007C047D7A7400F07E
:10047000A3DDFADCF6229166917B229001007C04D8
:1004800078E2910874049CFAEA44B8F89108781369
:1004900091087D3DE0912DA3DDFADCE4229001007E
:1004A0007C0474049CFAEA44B8F891087813910823
:1004B0007D3DE0912DA3DDFAEA44B8F8910D780076
:1004C000910D7D3DE0A3DDFCDCD822900100743D60
:1004D000C2D79850039001F4E975F0088475F03D97
:1004E000A4C2D7AB823BF58250020583E8C2D7ABEA
:1004F000823BF58250020583E975F00884E5F0FB44
:10050000740123DBFDFBE04BF022C083C08290002E
:10051000807400F07A08900080E02DF8E004F0EE9E
:10052000F9D082D083740093A3C083C082C0E07CE2
:1005300008D0E0C2D713C0E0500291CB09DCF2D062
:08054000E0DAD3D082D083225F
:1013A0007E7E02027E7E007E7E42427E7E000202C1
:1013B0007E7E0202007E7E12121E1E00707C0A0AD1
:1013C0007C70000E0E087E7E007E7E4A42007E7E8D
:0C13D00008087E7E007E7E42427E7E0089
:1013F00000444A3E0F1E24C000203EEF3E0402007F
:101400000004C23C1F3CC2040042221E0F1E2242A6
:1014100000040202010102040000000000000000BC
:1014200000000000000000000000000000000000BC
:1014300000000000000000000000000000000000AC
:10144000000000000000000000000000000000009C
:10145000000000000000000000000000000000008C
:10146000000000000000000000000000000000007C
:10147000000000000000000000000000000000006C
:10148000000000000000000000000000000000005C
:10149000000000000000000000000000000000004C
:1014A000000000000000000000040202010102042C
:1014B0000042221E0F1E22420004C23C1F3CC204F6
:10150000000000000000000000000000800000005B
:10151000002020E0F8E020203022241C1F3422305C
:101520003022241C1F3422303022241C1F3422304D
:101530003022241C1F3422303022241C1F3422303D
:101540003022241C1F3422303022241C1F3422302D
:101550003022241C1F3422303022241C1F3422301D
:101560003022241C1F3422303022241C1F3422300D
:101570003022241C1F3422303022241C1F342230FD
:101580003022241C1F3422303022241C1F342230ED
:101590003022241C1F3422303022241C1F342230DD
:1015A0003022241C1F342230002020E0F8E02020CC
:1015B00000000000800000000000000000000000AB
:101675000000000000000000000000000000000065
:101685000000000000000000000000000000000055
:101695000000000000000000000000000000000045
:1016A5000000F8F8FCFFFFFCF8F80000000000005F
:1016B5000000000000000000000000000000000025
:1016C50000000000000000000000E0F0B8B8B8B865
:1016D500F0E0000000000000000000000000000035
:1016E50000000000000000000000000000000000F5
:1016F500000000000000000000000000000000E005
:10170500E0E0E0E0E0E0E0000000000000000000B4
:1017150000000000000000000000E0F0B8BCB8B810
:10172500F0E00000000000000000000000000000E4
:10173500000000000000000000000000F8E0F8E0F4
:10174500F8E0F8E0000000000000000000000000E4
:101755000000000000000000988888FCFC8888983C
:101765000000000000000000000000000000000074
:101775000000000000000000000000000000000064
:101785000000000000000000000000000000000054
:101795000000F8F8FCFFFFFCF8F80000081C3622F2
:1017A5002020380C040E1A1210180808CFC9F9C9E0
:1017B500CFC9F9C9CFC9F9C9CFC9F9C9FFFF55AA19
:1017C50055AA55AA55AA55AA55AA55AA55AA55AA1C
:1017D50055AA55AA55AA55AA55AA55AA55AA55AA0C
:1017E50055AA55AA55AA55AA55AA55AA55AA55AAFC
:0917F50055AA55AA55AA55FFFF9B
:10200000AA55AA55AA55AA5538686E2A2A6A6E3862
:092010007E3C18181818183C4019
:00000001FF
