:0A000000020042C0D01183D0D032BC
:01000B0032C2
:0100130032BA
:01001B0032B2
:0100230032AA
:1000300075880075890075D00075A80022D2AFD2EE
:10004000A822113071C071835198794077007941AD
:1000500077007942770079437700794477007945D2
:1000600077007946770079477700794877037949AF
:10007000770022114A913A11AC22913A11AC1193B6
:1000800080FC22C0E0C2A8717479467401F7716FD8
:10009000D0E02211D19017A17BB87C4111D29017EA
:1000A000B17BBB7C4211D2310531BC227BB811B58A
:1000B0007BBB11B52278E29110EBF891107800919A
:1000C000109017C17A3D7B00EB93F8911A0BDAF888
:1000D000222278E2910BEBF8910B7813910BECF95B
:1000E000E77A3DFBBB0F027B00EB93F891150BDA2F
:1000F000F3ECF9EBF722B800067E00227E0122BD68
:1001000001FA7E002278E2910BEB78BA910B78131A
:10011000910B9016757944E7B4F0027400FCE58207
:100120002CF58230D70205837946E7FD0201325172
:1001300053227A3D7B00EB93F8BB000C11F6BE0016
:10014000EE717EE8716F48F8BB010C11F6BE00DF5E
:10015000717EE9716F48F8BB020C11F6BE00D071D8
:100160007EEA716F48F8BB030C11F6BE00C1717EC8
:10017000EB716F48F8BB040C11F6BE00B2717EEC57
:10018000716F48F8BB050C11F6BE00A3717EED71CE
:100190006F48F8BB060C11F6BE0094717EEE716FCD
:1001A00048F8BB070C11F6BE0085717EEF716F48F1
:1001B000F891150BDA8079440CECF72278E2910B78
:1001C00078B9910B7813910B7945E7FD0D7946E7E6
:1001D000B400057D00020208BD18087D007946774D
:1001E00000D2A8ED75F008A4FC901500E5822CF56E
:1001F000827A087B00EB93F891150BDAF8901400E3
:10020000E5822CF58202022A7948E714F7B4000C43
:100210007403F77947E76401F702021F7947E7752E
:10022000F008A49013F02582F582717E740093F893
:10023000740193F9740293FA740393FB740493FCAE
:10024000740593FD740693FE740793FF716F7945EF
:10025000EDF722C2A8913A78E2910B78BA910B7827
:1002600013910B7B1E78009115DBFA7C007B1F90AD
:1002700013A0EC93F891150CDBF578BA9110780087
:1002800091107B1D9013A0EC93F8911A0CDBF57480
:100290000A71341173D2A822519B2251A69169513F
:1002A000AD917E80F8229000FE7400F0229000FE56
:1002B000E004B40A027400F0FDC0E07E019020006A
:1002C000B10DD0E0FDC0E07E0E902008B10DD0E071
:1002D000FD7E18902010B10D22900100C083C082D5
:1002E0009013A0C083C0827C20D082D083740093FE
:1002F000A3A883A982D082D083F0A3AA83AB82EA89
:10030000C0E0EBC0E0E8C0E0E9C0E0DCDCD082D0D7
:1003100083D082D08378E2910B78B9910B781391D6
:100320000B7C007B187583018C82E0F891150CDB47
:10033000F480FE22FF7E047DFA7C92000000000023
:1003400000DCF8DDF4DEF0DFEC22FF7E920000003E
:10035000000000DEF8DFF422FF7E01DEFEDFFA227D
:10036000FF7E02000000DEFBDFF72275900022C254
:10037000D3C2D422D2D3C2D422C2D3D2D422D2D393
:10038000D2D422D28F22F02288838982F022F022D6
:1003900088A08980C2B3F590C2B600D2B6D2B3228B
:1003A000718622E02288838982E022E02288A08967
:1003B00080C2B3C2B700E590D2B7D2B32271A322F4
:1003C00075B001740C7160D2B47402714A78E29114
:1003D0000B911078EE910B911078A4910B911078FD
:1003E000A9910B911078C0910B911078A1910B916C
:1003F0001078AF910B9110716B2289B0889074289E
:100400007158C2B074A07158D2B022791D71FA220D
:10041000791571FA22793D71FA22793571FA2289BA
:10042000B0F59074287158C2B074A07158D2B0223F
:10043000793D911F227935911F227C0474049CFA26
:10044000EA44B8F8910B7813910B78007B3D911535
:10045000DBFCEA44B8F891107800911078007B3DFD
:10046000911ADBFCDCD6716B229001007C047D7A52
:100470007400F0A3DDFADCF6229169917E229001EE
:10048000007C0478E2910B74049CFAEA44B8F89179
:100490000B7813910B7D3DE09130A3DDFADCE42273
:1004A0009001007C0474049CFAEA44B8F8910B783B
:1004B00013910B7D3DE09130A3DDFAEA44B8F89149
:1004C00010780091107D3DE0A3DDFCDCD822900186
:1004D00000743DC2D79850039001F4E975F0088488
:1004E00075F03DA4C2D7AB823BF58250020583E88C
:1004F000C2D7AB823BF58250020583E975F00884D0
:10050000E5F0FB740123DBFDFBE04BF022C083C070
:10051000829000807400F07A08900080E02DF8E06E
:1005200004F0EEF9D082D083740093A3C083C0821C
:10053000C0E07C08D0E0C2D713C0E0500291CEE901
:0D05400004F9DCF0D0E0DAD1D082D08322C3
:1013A0007E7E02027E7E007E7E42427E7E000202C1
:1013B0007E7E0202007E7E12121E1E00707C0A0AD1
:1013C0007C70000E0E087E7E007E7E4A42007E7E8D
:0C13D00008087E7E007E7E42427E7E0089
:1013F00000444A3E0F1E24C000203EEF3E0402007F
:101400000004C23C1F3CC2040042221E0F1E2242A6
:1014100000040202010102040000000000000000BC
:1014200000000000000000000000000000000000BC
:1014300000000000000000000000000000000000AC
:10144000000000000000000000000000000000009C
:10145000000000000000000000000000000000008C
:10146000000000000000000000000000000000007C
:10147000000000000000000000000000000000006C
:10148000000000000000000000000000000000005C
:10149000000000000000000000000000000000004C
:1014A000000000000000000000040202010102042C
:1014B0000042221E0F1E22420004C23C1F3CC204F6
:10150000000000000000000000000000800000005B
:10151000002020E0F8E020203022241C1F3422305C
:101520003022241C1F3422303022241C1F3422304D
:101530003022241C1F3422303022241C1F3422303D
:101540003022241C1F3422303022241C1F3422302D
:101550003022241C1F3422303022241C1F3422301D
:101560003022241C1F3422303022241C1F3422300D
:101570003022241C1F3422303022241C1F342230FD
:101580003022241C1F3422303022241C1F342230ED
:101590003022241C1F3422303022241C1F342230DD
:1015A0003022241C1F342230002020E0F8E02020CC
:1015B00000000000800000000000000000000000AB
:101675000000000000000000000000000000000065
:101685000000000000000000000000000000000055
:101695000000000000000000000000000000000045
:1016A5000000F8F8FCFFFFFCF8F80000000000005F
:1016B5000000000000000000000000000000000025
:1016C50000000000000000000000E0F0B8B8B8B865
:1016D500F0E0000000000000000000000000000035
:1016E50000000000000000000000000000000000F5
:1016F500000000000000000000000000000000E005
:10170500E0E0E0E0E0E0E0000000000000000000B4
:1017150000000000000000000000E0F0B8BCB8B810
:10172500F0E00000000000000000000000000000E4
:10173500000000000000000000000000F8E0F8E0F4
:10174500F8E0F8E0000000000000000000000000E4
:101755000000000000000000988888FCFC8888983C
:101765000000000000000000000000000000000074
:101775000000000000000000000000000000000064
:101785000000000000000000000000000000000054
:101795000000F8F8FCFFFFFCF8F80000081C3622F2
:1017A5002020380C040E1A1210180808CFC9F9C9E0
:1017B500CFC9F9C9CFC9F9C9CFC9F9C9FFFF55AA19
:1017C50055AA55AA55AA55AA55AA55AA55AA55AA1C
:1017D50055AA55AA55AA55AA55AA55AA55AA55AA0C
:1017E50055AA55AA55AA55AA55AA55AA55AA55AAFC
:0917F50055AA55AA55AA55FFFF9B
:10200000AA55AA55AA55AA5538686E2A2A6A6E3862
:092010007E3C18181818183C4019
:00000001FF
