:0400000002003D328B
:01000B0032C2
:0100130032BA
:01001B0032B2
:0100230032AA
:1000300075880075890075D00075A80022113031CF
:10004000653128117C7801790074AA3147780179EB
:1000500001745531477801790274AA314778E23149
:10006000B078B931B0781331B07C007B037801EC03
:10007000F93162F831BA0CDBF480FE2231C4900110
:1000800000C083C082900700C083C0827C20D082E1
:10009000D083740093A3A883A982D082D083F0A3D5
:1000A000AA83AB82EAC0E0EBC0E0E8C0E0E9C0E0D0
:1000B000DCDCD082D083D082D08378E231B078B9D2
:1000C00031B0781331B07C007B187583018C82E0ED
:1000D000F831BA0CDBF480FE22FF7E047DFA7C92BC
:1000E000000000000000DCF8DDF4DEF0DFEC22FFB1
:1000F0007E92000000000000DEF8DFF422FF7E01A7
:10010000DEFEDFFA22FF7E02000000DEFBDFF722C8
:1001100075900022C2D3C2D422D2D3C2D422C2D379
:10012000D2D422D2D3D2D422D2B3D2B7D2B622885A
:10013000838982F022F02288A08980C2B3F590C220
:10014000B600D2B6D2B322312F2288838982E02230
:10015000E02288A08980C2B3C2B700E590D2B7D2AE
:10016000B322314A2275B001740C3105D2B4740245
:1001700011EF78E231B031B578EE31B031B578A415
:1001800031B031B578A931B031B578C031B031B5C1
:1001900078A131B031B578AF31B031B531102289A5
:1001A000B08890742811FDC2B074A011FDD2B022A5
:1001B000791D319F227915319F22793D319F227916
:1001C00035319F227C0474049CFAEA44B8F831B0BB
:1001D000781331B078007B3D31BADBFCEA44B8F8E3
:1001E00031B5780031B578007B3D31BFDBFCDCD622
:0301F000311022A9
:1007000000FFFF0303FFFF0000FFFF700EFFFF006D
:1007100000FFFFC3C3E7E70000CFEF1D1DFFFF0091
:010720004098
:00000001FF
