:1008000061E80000FF01010101C1E1B1111D1D7F7F
:100810007FFFFFFFFFFFFFFFFFFFFFFFFFFFFFFF68
:10082000FDFDF9B1F1E181010101C1C1C1C1C1C148
:10083000C1C1C1C1C1C1C1C1C1C1C1C1C1C1C1C1A8
:10084000C1C1C1C1C1C1C1C1C1C1C1C1C1C1C1C198
:10085000C1C1C1C1C1C1C1C1C1C1C1C1C1C1C1C188
:10086000C1C1C1C1C1C1C1C1C1C1C1C1C1C1C1C178
:10087000C1C1C1C1C1C1C1C1C1C1C1C1C1FFFFE0CD
:100880007C7F7FFFFFFFFFFFFFFFF86F6F0707060B
:10089000000003030F3F0707070303070F3B138005
:1008A00080239EF8F8F8FCFEFEFEFC00000080802D
:1008B000E0F8FCFEFEFEFC00000060F0F8F87C3E74
:1008C0001E1E1E1E1E1E1E3E3E7EFCF8F0E0C08058
:1008D00000000000000000000080E0F8FCFEFEFECA
:1008E000FEFC001C3E3E3E3E3E3E3EFEFEFEFEFE4A
:1008F0003E3E3E3E3E3E1CFFFF077CE080001F3F29
:10090000FFFFFFFF0F303800000000000000000074
:100910000000000000000080E0F0FCFFFF3F0F033C
:10092000FFFFFFFFFFF8FEFF7F7F1F0FFFFFFFFFAF
:10093000FF0000000000000000183C7E7E7E7E7EEE
:100940007E3C3C18000001FFFFFFFF000080E0F04C
:10095000FCFEFF7F1F07FFFFFFFFFFFF00000000FF
:100960000000000000FFFFFFFFFF0000000000008C
:1009700000FFFF8080808083868C98B0B0E0C0C08C
:100980008080808080808080C0C0C0C0C0E0F8FCD3
:10099000FFFFBF8F878180808080FFFFFFFFFF9F69
:1009A000838080808080FFFFFFFFFF808080868FB4
:1009B0009FBFFEFCF8F0F0F0F0F0F0F8F8FCFEBF9E
:1009C0009F8F87E3F9FCFFFFBF9F87818080808036
:1009D000FFFFFFFFFFFF808080808080808080FF9E
:0C09E000FFFFFFFF80808080808080FF90
:100F5500E4FFFE0F120BB4120AF1120FD3120FB7F2
:020F650080FB0F
:010FD30022FB
:090FB700120DDB120E4E020FC0F8
:100DDB00E4FFFEE4FCFD90000075F07AEF120E428A
:100DEB00EE75F07AA42583F583E5822DF582E583F4
:100DFB003CF583E4F00DBD00010CED647A4C70D62C
:0C0E0B000FBF00010EEF64044E70C822FF
:100E4E0090000274FFF0A3F0A3F0A374AAF0A374B1
:100E5E0055F0A374AAF0A37455F0A374FFF0A3F099
:100E6E00A3F090012D7481F0A3F0A3F0A374FFF012
:050E7E00A3F0A3F02227
:090FC0007B017A007900020C5D4E
:100F2F00C3EF9401EE64809480400443B0202253B9
:030F3F00B0DF22FE
:100F4200C3EF9401EE64809480400443B0082253BE
:030F5200B0F722D3
:030FD0008F9022DD
:100BB4009001E8EEF0A3EFF0AFB07E00E4FDFC128C
:100BC4000EA38FB0AFB07E007D047C00120E838F25
:100BD400B07F0A7E00120F8AAFB07E007D047C00D5
:100BE400120EA38FB07F017E00120F797FE27E0088
:100BF400120F72120FAC7FEE7E00120F727FEE7E28
:100C040000120FB07FA47E00120F727FA47E001228
:100C14000FB07FA97E00120F727FA97E00120FB061
:100C24007FC07E00120F727FC07E00120FB07FA1C2
:100C34007E00120F729001E8E07002A3E070057F5D
:100C4400A0FE80047FA17E00120FB07FAF7E001251
:090C54000F727FAF7E00020FB0A9
:0B0F6700A3F0A3F0A3F0A3F07FE2FED4
:070F7200C200D201020D8351
:040FAC007FE27E0062
:070FB000C200C201020D8323
:100EFB002FF9EA3EFAE0FEA3E029F9EA3EFA120ED8
:040F0B0017FF7E004E
:070F0F00D200D201020D83A4
:070FC900D200C201020D83FA
:100D83009001EFEEF0A3EFF0AFB07E007D017C00A9
:100D9300120E838FB0A200E4FE33FF120F2FA201C5
:100DA300E433FF120F429001EFE0FEA3E0FF120FC6
:100DB300D07F287E00120F9BAFB07E00E4FDFC12B3
:100DC3000E838FB07FA07E00120F9BAFB07E00E436
:080DD300FDFC120EA38FB022FB
:100AF100E49001E8F0A3F0120F67120FACE490014B
:100B0100E8F0A3F09001E8E0FEA3E0FFC39404EE57
:100B1100648094804003020BB3EF44B8FF120F725C
:100B21007F137E00120F72E49001EAF0A3F09001AE
:100B3100ECE0FEA3E0FF120F0F9001EBE004F07078
:100B4100069001EAE004F0C39001EBE0943D9001CE
:100B5100EAE06480948040D69001E8E0FEA3E0449E
:100B6100B8FF120FB0E4FFFE120FB09001EAE4F0FB
:100B7100A3743DF09001ECE0FEA3E0FF120FC990D9
:100B810001EBE004F070069001EAE004F0C390018B
:100B9100EBE0947A9001EAE06480948040D6900181
:100BA100E9E004F06003020B059001E8E004F002C3
:030BB1000B05220F
:1009ED009001F1EBF0A3EAF0A3E9F0E4120F671226
:1009FD000FACE49001F4F0A3F09001F4E0FEA3E05D
:100A0D00FFC39404EE648094804003020AF0EF4427
:100A1D00B8FF120F727F137E00120F72E49001F671
:100A2D00F0A3F09001F4E0FEA3E0FF7C007D7A12CC
:100A3D000E309001F1E0FBA3E0FAA3E09001F61275
:100A4D000EFB9001F7E004F070069001F6E004F063
:100A5D00C39001F7E0943D9001F6E06480948040EE
:100A6D00C29001F4E0FEA3E044B8FF120FB0E4FF22
:100A7D00FE120FB09001F6E4F0A3743DF09001F476
:100A8D00E0FEA3E0FF7C007D7A120E309001F1E0D4
:100A9D00FBA3E0FAA3E02FF9EA3EFA9001F6E0FE9F
:100AAD00A3E029F9EA3EFA120E17FF7E00120FC9D4
:100ABD009001F7E004F070069001F6E004F0C390A9
:100ACD0001F7E0947A9001F6E06480948040AE9056
:100ADD0001F5E004F06003020A069001F4E004F071
:040AED00020A0622D1
:100C5D009001E8EBF0A3EAF0A3E9F0E4A3F0A3F030
:100C6D00A3F0A3F09001EBF0A3F07FE27E00120F52
:100C7D00729001EBE0FEA3E044B8FF120F727F13F8
:100C8D007E00120F72E49001EDF0A3F09001EBE005
:100C9D00FEA3E0FF7C007D7A120E309001E8E0FBB0
:100CAD00A3E0FAA3E09001ED120EFB9001EEE0043B
:100CBD00F070069001EDE004F0C39001EEE0943D7C
:100CCD009001EDE06480948040C29001ECE004F06E
:100CDD0070069001EBE004F0C39001ECE0940490F9
:0A0CED0001EBE06480948040812256
:100EA300AB07AA06AF0574017E00A807088005C337
:0E0EB30033CE33CED8F9FFEA4EFEEB4FFF22CE
:100E8300AB07AA06AF0574017E00A807088005C357
:100E930033CE33CED8F9F4FFEEF45AFEEB5FFF22E4
:100EC100AB07AA06AF0574017E00A807088005C319
:0E0ED10033CE33CED8F9FFEA6EFEEB6FFF2270
:010FD40022FA
:040F16007F017E00D9
:100F1A00E4FDFCC3ED9FEC9E500A120FD40DBD00F8
:050F2A00010C80EF2224
:100EDF00AB07AA06D3EB9400EA9400400E7FE87E9E
:0C0EEF0003120F1AEB1B70EC1A80E922B2
:100F79007A007B01120F16EB1B70011AEB4A70F411
:010F89002245
:100F8A007A007B01120F16EB1B70011AEB4A70F400
:010F9A002234
:100F9B007A007B01120F16EB1B70011AEB4A70F4EF
:010FAB002223
:03000000020CF7F8
:0C0CF700787FE4F6D8FD758120020D3EE8
:100E1700BB010689828A83E0225002E722BBFE02D9
:090E2700E32289828A83E493220C
:100E3000EF8DF0A4A8F0CF8CF0A428CE8DF0A42ED6
:020E4000FE2290
:0C0E4200A42582F582E5F03583F58322BB
:100D0300020F55E493A3F8E493A34003F68001F2A2
:100D130008DFF48029E493A3F85407240CC8C333F1
:100D2300C4540F4420C8834004F456800146F6DFC0
:100D3300E4800B0102040810204080900800E47E48
:100D4300019360BCA3FF543F30E509541FFEE493B5
:100D5300A360010ECF54C025E060A840B8E493A37C
:100D6300FAE493A3F8E493A3C8C582C8CAC583CAA7
:100D7300F0A3C8C582C8CAC583CADFE9DEE780BE5F
:0109EC00000A
:00000001FF
