:0A000000020042C0D011E8D0D03257
:01000B0032C2
:0100130032BA
:01001B0032B2
:0100230032AA
:1000300075880075890075D00075A80022D2AFD2EE
:10004000A8221130318E11F8114E113D11857940E1
:1000500077007941770079427700794377007944D6
:1000600077007945770079467700794777007948B6
:1000700077037949770022114E31ED51352231ED68
:10008000511C80FC2231ED7801790074FF3119791F
:100090000174AA3119790274553119790374AA319E
:1000A00019790474553119790574AA3119790674CE
:1000B000FF311978E231D978B931D9781331D9784B
:1000C000FF31E378AA31E378FF31E3788131E378D7
:1000D0000031E37C007B0774FF7801ECF9313CF8D8
:1000E00031E30CDBF280FE22C0E0C2A8317F79460A
:1000F0007401F7317AD0E022D2B3D28F228883897B
:1001000082F022F022D2B6D2B3F590888089A0C2C4
:10011000B3C2B600D2B6D2B3223105228883898217
:10012000E022E022D2B6D2B3D2B7888089A07590FF
:1001300000C2B3C2B7E590D2B3D2B722312422FFB6
:100140007E047DFA7C92000000000000DCF8DDF403
:10015000DEF0DFEC22FF7E92000000000000DEF8FF
:10016000DFF422FF7E01DEFEDFFA22FF7E020000C6
:1001700000DEFBDFF72275900022C2D3C2D422D268
:10018000D3C2D422C2D3D2D422D2D3D2D42275B0F5
:1001900001740C316BD2B47402315578E231D9312B
:1001A000DE78EE31D931DE78A431D931DE78A9316B
:1001B000D931DE78C031D931DE78A131D931DE785C
:1001C000AF31D931DE31762289B08890742831631D
:1001D000C2B074A03163D2B022791D31C822791522
:1001E00031C822793D31C822793531C8227C047466
:1001F000049CFAEA44B8F831D9781331D978007BF5
:100200003D31E3DBFCEA44B8F831DE781331DE78C7
:10021000007B3D31E8DBFCDCD6317622515A901769
:10022000A17BB87C41515B9017B17BBB7C42515B99
:10023000518E7145227BB8513E7BBB513E2278E204
:1002400031DEEBF831DE781331DE9017C17A3D7B79
:1002500000EB93F831E80BDAF8222278E231D9EB9F
:10026000F831D9781331D9ECF9E77A3DFBBB0F02AD
:100270007B00EB93F831E30BDAF3ECF9EBF722B800
:1002800000067E00227E0122BD01FA7E002278E275
:1002900031D9EB78BA31D9781331D99016757944C0
:1002A000E7B4F0027400FCE5822CF58230D7020539
:1002B000837946E7FD0202BB71DC227A3D7B00EBCD
:1002C00093F8BB000C517FBE00EE3189E8317A48CB
:1002D000F8BB010C517FBE00DF3189E9317A48F863
:1002E000BB020C517FBE00D03189EA317A48F8BB9D
:1002F000030C517FBE00C13189EB317A48F8BB0451
:100300000C517FBE00B23189EC317A48F8BB050C44
:10031000517FBE00A33189ED317A48F8BB060C51FC
:100320007FBE00943189EE317A48F8BB070C517FCB
:10033000BE00853189EF317A48F831E30BDA8079F4
:10034000440CECF72278E231D978B931D9781331FD
:10035000D97945E7FD0D7946E7B400057D00020334
:1003600091BD18087D0079467700D2A8ED75F00898
:10037000A4FC901500E5822CF5827A087B00EB93B3
:10038000F831E30BDAF8901400E5822CF5820203D1
:10039000B37948E714F7B4000C7403F77947E764BE
:1003A00001F70203A87947E775F008A49013F02538
:1003B00082F5823189740093F8740193F974029381
:1003C000FA740393FB740493FC740593FD74069311
:1003D000FE740793FF317A7945EDF722C2A831ED1B
:1003E00078E231D978BA31D9781331D97B1D7800C8
:1003F00031E3DBFA7C007B1F9013A0EC93F831E330
:100400000CDBF578BA31DE781331DE7B1D9013A05A
:10041000EC93F831E80CDBF5740A313F1177D2A880
:0104200022B9
:1013A0007E7E02027E7E007E7E42427E7E000202C1
:1013B0007E7E0202007E7E12121E1E00707C0A0AD1
:1013C0007C70000E0E087E7E007E7E4A42007E7E8D
:0C13D00008087E7E007E7E42427E7E0089
:1013F00000444A3E0F1E24C000203EEF3E0402007F
:101400000004C23C1F3CC2040042221E0F1E2242A6
:1014100000040202010102040000000000000000BC
:1014200000000000000000000000000000000000BC
:1014300000000000000000000000000000000000AC
:10144000000000000000000000000000000000009C
:10145000000000000000000000000000000000008C
:10146000000000000000000000000000000000007C
:10147000000000000000000000000000000000006C
:10148000000000000000000000000000000000005C
:10149000000000000000000000000000000000004C
:1014A000000000000000000000040202010102042C
:1014B0000042221E0F1E22420004C23C1F3CC204F6
:10150000000000000000000000000000800000005B
:10151000002020E0F8E020203022241C1F3422305C
:101520003022241C1F3422303022241C1F3422304D
:101530003022241C1F3422303022241C1F3422303D
:101540003022241C1F3422303022241C1F3422302D
:101550003022241C1F3422303022241C1F3422301D
:101560003022241C1F3422303022241C1F3422300D
:101570003022241C1F3422303022241C1F342230FD
:101580003022241C1F3422303022241C1F342230ED
:101590003022241C1F3422303022241C1F342230DD
:1015A0003022241C1F342230002020E0F8E02020CC
:1015B00000000000800000000000000000000000AB
:101675000000000000000000000000000000000065
:101685000000000000000000000000000000000055
:101695000000000000000000000000000000000045
:1016A5000000F8F8FCFFFFFCF8F80000000000005F
:1016B5000000000000000000000000000000000025
:1016C50000000000000000000000E0F0B8B8B8B865
:1016D500F0E0000000000000000000000000000035
:1016E50000000000000000000000000000000000F5
:1016F500000000000000000000000000000000E005
:10170500E0E0E0E0E0E0E0000000000000000000B4
:1017150000000000000000000000E0F0B8BCB8B810
:10172500F0E00000000000000000000000000000E4
:10173500000000000000000000000000F8E0F8E0F4
:10174500F8E0F8E0000000000000000000000000E4
:101755000000000000000000988888FCFC8888983C
:101765000000000000000000000000000000000074
:101775000000000000000000000000000000000064
:101785000000000000000000000000000000000054
:101795000000F8F8FCFFFFFCF8F80000081C3622F2
:1017A5002020380C040E1A1210180808CFC9F9C9E0
:1017B500CFC9F9C9CFC9F9C9CFC9F9C9FFFF55AA19
:1017C50055AA55AA55AA55AA55AA55AA55AA55AA1C
:1017D50055AA55AA55AA55AA55AA55AA55AA55AA0C
:1017E50055AA55AA55AA55AA55AA55AA55AA55AAFC
:0A17F50055AA55AA55AA55FFFF405A
:00000001FF
