:0A000000020042C0D01185D0D032BA
:01000B0032C2
:0100130032BA
:01001B0032B2
:0100230032AA
:1000300075880075890075D00075A80022D2AFD2EE
:10004000A822113011E4114C113D117C7940770048
:1000500079417700794277007943770079447700D6
:1000600079457700794677007947770079487703B3
:100070007949770022114C3145318D223145318D3E
:10008000317480FC22C0E0C2A811D579467401F712
:1000900011D0D0E022FF7E047DFA7C9200000000A7
:1000A0000000DCF8DDF4DEF0DFEC22FF7E920000E1
:1000B00000000000DEF8DFF422FF7E01DEFEDFFA42
:1000C00022FF7E02000000DEFBDFF7227590002297
:1000D000C2D3C2D422D2D3C2D422C2D3D2D422D247
:1000E000D3D2D42275B001740C11C1D2B4740211F0
:1000F000AB78E23131313678EE3131313678A431B6
:1001000031313678A93131313678C03131313678F4
:10011000A1313178A0313678AF3131313611CC226E
:1001200089B08890742811B9C2B074A011B9D2B046
:1001300022791D3120227915312022793D3120226A
:1001400079353120227C0474049CFAEA44B8F831F1
:10015000317813313178007B3D313BDBFCEA44B828
:10016000F831367800313678007B3D3140DBFCDCFD
:10017000D611CC2231B29007A17BB87C4131B3902B
:1001800007B17BBB7C4231B331E6519D227BB83154
:10019000967BBB31962278E23136EBF83136780027
:1001A00031369007C17A3D7B00EB93F831400BDA92
:1001B000F8222278E23131EBF8313178133131EC29
:1001C000F9E77A3DFBBB0F027B00EB93F8313B0B69
:1001D000DAF3ECF9EBF722B800067E00227E01226A
:1001E000BD01FA7E002278E23131EB78BA31317804
:1001F0001331319006757944E7B4F0027400FCE5E0
:10020000822CF58230D70205837946E7FD0202137E
:100210007134227A3D7B00EB93F8BB000C31D7BEE2
:1002200000EE11DFE811D048F8BB010C31D7BE0059
:10023000DF11DFE911D048F8BB020C31D7BE00D086
:1002400011DFEA11D048F8BB030C31D7BE00C11151
:10025000DFEB11D048F8BB040C31D7BE00B211DF80
:10026000EC11D048F8BB050C31D7BE00A311DFED6F
:1002700011D048F8BB060C31D7BE009411DFEE1147
:10028000D048F8BB070C31D7BE008511DFEF11D085
:1002900048F8313B0BDA8079440CECF72278E231F4
:1002A0003178B93131781331317945E7FD0D79462F
:1002B000E7B400057D000202E9BD18087D0079461B
:1002C0007700D2A8ED75F008A4FC900500E5822C1B
:1002D000F5827A087B00EB93F8313B0BDAF8900457
:1002E00000E5822CF58202030B7948E714F7B4008D
:1002F0000C7403F77947E76401F70203007947E7D5
:1003000075F008A49003F02582F58211DF74009344
:10031000F8740193F9740293FA740393FB740493D1
:10032000FC740593FD740693FE740793FF11D07956
:1003300045EDF722C2A8314578E2313178BA313142
:10034000781331317B1E7800313BDBFA7C007B1F58
:100350009003A0EC93F8313B0CDBF578BA3136789A
:100360000031367B1D9003A0EC93F831400CDBF597
:09037000740A11951175D2A8223E
:1003A0007E7E02027E7E007E7E42427E7E000202D1
:1003B0007E7E0202007E7E12121E1E00707C0A0AE1
:1003C0007C70000E0E087E7E007E7E4A42007E7E9D
:0C03D00008087E7E007E7E42427E7E0099
:1003F00000444A3E0F1E24C000203EEF3E0402008F
:100400000004C23C1F3CC2040042221E0F1E2242B6
:1004100000040202010102040000000000000000CC
:1004200000000000000000000000000000000000CC
:1004300000000000000000000000000000000000BC
:1004400000000000000000000000000000000000AC
:10045000000000000000000000000000000000009C
:10046000000000000000000000000000000000008C
:10047000000000000000000000000000000000007C
:10048000000000000000000000000000000000006C
:10049000000000000000000000000000000000005C
:1004A000000000000000000000040202010102043C
:1004B0000042221E0F1E22420004C23C1F3CC20406
:10050000000000000000000000000000800000006B
:10051000002020E0F8E020203022241C1F3422306C
:100520003022241C1F3422303022241C1F3422305D
:100530003022241C1F3422303022241C1F3422304D
:100540003022241C1F3422303022241C1F3422303D
:100550003022241C1F3422303022241C1F3422302D
:100560003022241C1F3422303022241C1F3422301D
:100570003022241C1F3422303022241C1F3422300D
:100580003022241C1F3422303022241C1F342230FD
:100590003022241C1F3422303022241C1F342230ED
:1005A0003022241C1F342230002020E0F8E02020DC
:1005B00000000000800000000000000000000000BB
:100675000000000000000000000000000000000075
:100685000000000000000000000000000000000065
:100695000000000000000000000000000000000055
:1006A5000000F8F8FCFFFFFCF8F80000000000006F
:1006B5000000000000000000000000000000000035
:1006C50000000000000000000000E0F0B8B8B8B875
:1006D500F0E0000000000000000000000000000045
:1006E5000000000000000000000000000000000005
:1006F500000000000000000000000000000000E015
:10070500E0E0E0E0E0E0E0000000000000000000C4
:1007150000000000000000000000E0F0B8BCB8B820
:10072500F0E00000000000000000000000000000F4
:10073500000000000000000000000000F8E0F8E004
:10074500F8E0F8E0000000000000000000000000F4
:100755000000000000000000988888FCFC8888984C
:100765000000000000000000000000000000000084
:100775000000000000000000000000000000000074
:100785000000000000000000000000000000000064
:100795000000F8F8FCFFFFFCF8F80000081C362202
:1007A5002020380C040E1A1210180808CFC9F9C9F0
:1007B500CFC9F9C9CFC9F9C9CFC9F9C9FFFF55AA29
:1007C50055AA55AA55AA55AA55AA55AA55AA55AA2C
:1007D50055AA55AA55AA55AA55AA55AA55AA55AA1C
:1007E50055AA55AA55AA55AA55AA55AA55AA55AA0C
:0A07F50055AA55AA55AA55FFFF406A
:00000001FF
