:0400000002003E328A
:01000B0032C2
:0100130032BA
:01001B0032B2
:0100230032AA
:1000300075880075890075D00075A80022221130DE
:10004000313F11AB113D1148319E7801790074FFA9
:1000500011CA790174AA11CA7902745511CA7903B7
:1000600074AA11CA7904745511CA790574AA11CAFF
:10007000790674FF11CA78E2318A78B9318A781327
:10008000318A78FF319478AA319478FF319478815D
:100090003194780031947C007B0774FF7801ECF98F
:1000A00011EDF831940CDBF280FE22D28F2288838E
:1000B0008982F022F022D2B6D2B3F590888089A04E
:1000C000C2B3C2B600D2B6D2B32211AE228883899F
:1000D00082E022E022D2B6D2B3D2B7888089A0755E
:1000E0009000C2B3C2B7E590D2B3D2B72211CD22ED
:1000F000FF7E047DFA7C92000000000000DCF8DD49
:10010000F4DEF0DFEC22FF7E92000000000000DE53
:10011000F8DFF422FF7E01DEFEDFFA22FF7E02001E
:100120000000DEFBDFF72275900022C2D3C2D4228A
:10013000D2D3C2D422C2D3D2D422D2D3D2D4227523
:10014000B001740C311CD2B47402310678E2318AE9
:10015000318F78EE318A318F78A4318A318F78A946
:10016000318A318F78C0318A318F78A1318A318FCD
:1001700078AF318A318F31272289B0889074283145
:1001800014C2B074A03114D2B022791D3179227911
:1001900015317922793D31792279353179227C0402
:1001A00074049CFAEA44B8F8318A7813318A7800EA
:1001B0007B3D3194DBFCEA44B8F8318F7800318F15
:0D01C00078007B3D3199DBFCDCD631272235
:1007C100FFFF55AA55AA55AA55AA55AA55AA55AA31
:1007D10055AA55AA55AA55AA55AA55AA55AA55AA20
:1007E10055AA55AA55AA55AA55AA55AA55AA55AA10
:0E07F10055AA55AA55AA55AA55AA55FFFF406C
:00000001FF
