:0400000002003D328B
:01000B0032C2
:0100130032BA
:01001B0032B2
:0100230032AA
:1000300075880075890075D00075A80022113031CF
:100040005711D111457801790174AA11EA78017923
:1000500002745511EA78E231A278B931A2781331ED
:10006000A27C007B037801ECF93105F831AC0CDBA4
:10007000F480FE2231B6900100C083C08290070058
:10008000C083C0827C20D082D083740093A3A883D5
:10009000A982D082D083F0A3AA83AB82EAC0E0EB2E
:1000A000C0E0E8C0E0E9C0E0DCDCD082D083D082F0
:1000B000D08378E231A278B931A2781331A27C00E2
:1000C0007B187583018C82E0F831AC0CDBF480FE88
:1000D000222288838982F022F02288A08980C2B3FC
:1000E000F590C2B600D2B6D2B32211DA2288838943
:1000F00082E022E02288A08980C2B3C2B700E590E6
:10010000D2B7D2B32211F522FF7E047DFA7C920091
:100110000000000000DCF8DDF4DEF0DFEC22FF7E02
:1001200092000000000000DEF8DFF422FF7E01DE16
:10013000FEDFFA22FF7E02000000DEFBDFF7227501
:10014000900022C2D3C2D422D2D3C2D422C2D3D2EC
:10015000D422D2D3D2D42275B001740C3134D2B4AB
:100160007402311E78E231A231A778EE31A231A7B4
:1001700078A431A231A778A931A231A778C031A2E1
:1001800031A778A131A231A778AF31A231A7313F91
:100190002289B088907428312CC2B074A0312CD23E
:1001A000B022791D3191227915319122793D319119
:1001B0002279353191227C0474049CFAEA44B8F81F
:1001C00031A2781331A278007B3D31ACDBFCEA44EC
:1001D000B8F831A7780031A778007B3D31B1DBFC5E
:0501E000DCD6313F22D6
:1007000000FFFF0303FFFF0000FFFF700EFFFF006D
:1007100000FFFFC3C3E7E70000CFEF1D1DFFFF0091
:010720004098
:00000001FF
