:0400000002003D328B
:01000B0032C2
:0100130032BA
:01001B0032B2
:0100230032AA
:1000300075880075890075D00075A80022C2B7C206
:10004000B511301187114711E8311880FE22C2D353
:10005000C2D422D2D3C2D422C2D3D2D422D2D3D2B7
:10006000D422FF7E92000000000000DEF8DFF422C0
:10007000FF7E01DEFEDFFA22FF7E02000000DEFBD3
:10008000DFF7227590002275B001740C1178D2B49C
:100090007402116278E211D411D978EE11D411D919
:1000A00078A411D411D978A911D411D978C011D458
:1000B00011D978A111D478A011D978AF11D411D960
:1000C00011832289B0889074281170C2B074A01175
:1000D00070D2B022791D11C322791511C322793D46
:1000E00011C322793511C3227C0474049CFAEA44BA
:1000F000B8F811D4781311D478007B3D11DEDBFC05
:10010000EA44B8F811D9780011D978007B3D11E3A1
:10011000DBFCDCD6118322227A00EA44B8F811D441
:10012000781311D49007007B03312EDBFC227A0870
:10013000740093F811DEA3DAF7227A08740093F8BA
:0601400011E3A3DAF7222F
:1007000000FFFF0303FFFF0000FFFF700EFFFF006D
:1007100000FFFFC3C3E7E70000CFEF1D1DFFFF0091
:010720004098
:00000001FF
